:060000000A128A110E280D
:10000800FE00030EF4000408F5000A08F6000A12C0
:100018008A11EF290A128A11112883133030FD0042
:100028000330FE004C30FF00203084000A128A1191
:100038003D230A128A11BC01BD01BE01BF01F701AF
:10004800F801F901FA01FB01FC0183010A128A1186
:10005800A32A8312031330083104031D34283528DA
:100068003C28C3309F058316031708080138880009
:100078008312031330033104031D432844284D28F9
:100088001F08C33904389F0083160317080802386D
:10009800880002308312031330063104031D5528EB
:1000A80056285F281F08C33908389F00831603178E
:1000B800080804388800033083120313300631041B
:1000C800031D6728682871281F08C3390C389F004A
:1000D80083160317080808388800043083120313AE
:1000E80030063104031D79287A2883281F08C3396C
:1000F80010389F0083160317080810388800053049
:100108008312031330063104031D8B288C2895288D
:100118001F08C33914389F008316031708082038AE
:10012800880006308312031330063104031D9D280E
:100138009E28A7281F08C33918389F00831603175D
:10014800080840388800073083120313300631044A
:10015800031DAF28B028B9281F08C3391C389F00D1
:1001680083160317080880388800083083120313A1
:1001780030063104031DC128C228CB281F08C33903
:1001880020389F00831603170908013889000930B1
:100198008312031330063104031DD328D428DD2825
:1001A8001F08C33924389F0083160317090802382B
:1001B80089000A308312031330063104031DE52831
:1001C800E628EF281F08C33928389F00831603172D
:1001D8000908043889000B308312031330063104F0
:1001E800031DF728F82801291F08C3392C389F0058
:1001F800831603170908083889000C308312031383
:1002080030063104031D09290A2913291F08C33997
:1002180030389F00831603170908103889000D30FD
:100228008312031330063104031D1B291C292529B9
:100238001F08C33934389F0083160317090820386C
:100248008900080083120313B601B11F2C292D2938
:100258003429B009B109B00A0319B10AB601B60ABE
:10026800B31F372938294129B209B309B20A03193A
:10027800B30A0130B4003408B606B701B801300833
:1002880031040319482949298029B501B50A572994
:1002980001300310B00DB10DFF3E031D4D29013093
:1002A800B4003408B507B11F5A295B294C2901301D
:1002B8000310B70DB80DFF3E031D5C29310833024A
:1002C800031D682930083202031C6B296C29732925
:1002D8003008B2023108031CB303B30237140130EB
:1002E8000310B10CB00CFF3E031D74290130B50298
:1002F800031D7F2980295B2936080319842985294C
:100308008A29B709B809B70A0319B80A3808B10021
:100318003708B000080083120313B0008B1583164A
:10032800031381130730831203133006031D9D291D
:100338009E29A22983160313951796170630831250
:100348003006031DA829A929AD29831603131517FB
:100358001617053083123006031DB329B429B829AE
:100368008316031395169616043083123006031D60
:10037800BE29BF29C3298316031315161616033081
:1003880083123006031DC929CA29CE2983160313EF
:1003980095159615023083123006031DD429D529E8
:1003A800D929831603131515161583123003031D57
:1003B800DE29DF29E3298316031395149614831283
:1003C8003008031DE829E929ED29831603131514BC
:1003D80016140B1008000B1DF229F3291C2A8B1286
:1003E800FC3083120313810077087804031DFD296C
:1003F800FE290B2A7808F1007708F0000A128A1102
:1004080018230A128A110130F7000030F800770328
:100418007804031D102A112A1C2A7808F10077088D
:10042800F0000A128A1118230A128A11F701F8013A
:100438000B1C1F2A202A262A0A128A1141220A1274
:100448008A110B10831203130C1F2B2A2C2A382A0B
:100458000A128A115C230A128A1171088312031383
:10046800BD007008BC000C1376088A00750884006B
:10047800740E8300FE0E7E0E090083120313061B02
:10048800462A472A4B2A0130F9000030FA00061F95
:100498004E2A4F2A592A79037A04031D542A552AC9
:1004A800592A01308802F901FA01861B5C2A5D2A63
:1004B800612A0230F9000030FA00861F642A652A92
:1004C800722A023079067A04031D6B2A6C2A722A72
:1004D8000130F00070088807F901FA01080083125A
:1004E80003133A08803ABB0080303B02031D7E2A82
:1004F80008083902031C812A822A862A83120313D8
:100508000915892A8312031309110F303905FB00D5
:1005180000303A05FC001030B0000030B1003A0855
:10052800B3003908B2000A128A1126210A128A1168
:10053800831203133108BF003008BE0008000A12F6
:100548008A11CF220A128A11003083120313B200D3
:10055800B3000A128A11F5220A128A110A128A11A4
:1005680066230A128A11FC30831203138100831256
:1005780003139F18C02AC12ABB2A9F143D08BA003A
:100588003C08B9000A128A1173220A128A11BB2A7E
:100598000A128A110E2883160313061786170610E7
:1005A800861087018801890183120313850186015A
:1005B8008701880189018B170B1707300A128A11E6
:1005C8008F210A128A1106300A128A118F210A1203
:1005D8008A11831603130F088F3960388F000F14A0
:1005E8000800831603130C17831203130C139F13AD
:1005F8001F13831603139F121F129F1383120313D3
:100608003308B1003208B0000A128A112D200A12EC
:100618008A11831203131F14203083120313B400AA
:10062800B40B142B0000080070087104031D1D2B67
:100638001E2B282B7B08203E84008313000883127E
:10064800031387000914891070037104031D2D2BEF
:100658002E2B382B831203133E08203E840083136D
:10066800000887000910891408007E088A007F089E
:1006780082000A128A1139230A128A118000840A18
:1006880004087D0603190034FF0A0319FE0A3D2BEE
:100698003F3406345B344F3466346D347D3407346C
:1006A8007F34673477347C3439345E347934713448
:1006B800831203131E08F200F3017208F000730896
:1006C800F10008000B118B16831603138112811198
:0606D80007308104080058
:08400000FF3FFF3FFF3FFF3FC0
:04400E00D420FF3F7C
:00000001FF
