:060000000A128A110C280F
:10000800FE00030EF1000A08F2000A128A115F28A6
:100018000A128A110F28F30183010A128A11702823
:1000280083120313061B19281A281C28F301F30A44
:10003800061F1F28202828287303031D2428252885
:10004800282801308802F301861B2B282C282E280B
:100058000230F300861F312832283D28023073060B
:10006800031D372838283D280130F000700888071C
:10007800F301080083160317880189018316031307
:1000880006178617880183120313850186018701E5
:1000980088018901831603138113151795178B1788
:1000A8000B178B15161796170B100F088F3960381A
:1000B8008F000F1408000B1C6228632869280A1295
:1000C8008A1114200A128A110B1072088A00710E04
:1000D8008300FE0E7E0E09000A128A113E200A12C3
:0A00E8008A1175280A128A110C28EB
:08400000FF3FFF3FFF3FFF3FC0
:04400E00D420FF3F7C
:00000001FF
