:060000000A128A110C280F
:10000800FE00030EF1000A08F2000A128A11B7284E
:100018000A128A110F28F50183010A128A11C828C9
:10002800F30007307306031D1A281B281E288316A1
:100038000313961706307306031D23282428272840
:1000480083160313161705307306031D2C282D2855
:10005800302883160313961604307306031D3528BB
:100068003628392883160313161603307306031D22
:100078003E283F284228831603139615023073063C
:10008800031D472848284B288316031316157303A6
:10009800031D4F28502853288316031396147308FA
:1000A800031D572858285B288316031316140800C5
:1000B8008316031788018901831603130617861709
:1000C800880183120313850186018701880189014C
:1000D800831603138113151795178B170B178B1599
:1000E8000730F40007300A128A1114200A128A1104
:1000F8000630F40006300A128A1114200A128A11F6
:100108000B10831603130F088F3960388F000F14F4
:10011800080083120313061B922893289528F501DB
:10012800F50A061F98289928A1287503031D9D28FC
:100138009E28A12801308802F501861BA428A5283D
:10014800A7280230F500861FAA28AB28B628023057
:100158007506031DB028B128B6280130F0007008D4
:100168008807F50108000B1CBA28BB28C1280A1209
:100178008A118D200A128A110B1072088A00710EDA
:100188008300FE0E7E0E09000A128A115C200A12F4
:0A0198008A11CD280A128A110C28E2
:08400000FF3FFF3FFF3FFF3FC0
:04400E00D420FF3F7C
:00000001FF
